:020000040000fa
:080000000002040000000000f2
:020000040000fa
:040008007c03000075
:020000040000fa
:04000c007c03000071
:020000040000fa
:040010007c0300006d
:020000040000fa
:040014007c03000069
:020000040000fa
:040018007c03000065
:020000040000fa
:04001c007c03000061
:020000040000fa
:040020007c0300005d
:020000040000fa
:040024007c03000059
:020000040000fa
:040028007c03000055
:020000040000fa
:04002c005603000077
:020000040000fa
:040030007c0300004d
:020000040000fa
:040034007c03000049
:020000040000fa
:040038007c03000045
:020000040000fa
:04003c007c03000041
:020000040000fa
:040040007c0300003d
:020000040000fa
:040044007c03000039
:020000040000fa
:040048007c03000035
:020000040000fa
:04004c007c03000031
:020000040000fa
:040050007c0300002d
:020000040000fa
:040054007c03000029
:020000040000fa
:040058007c03000025
:020000040000fa
:04005c007c03000021
:020000040000fa
:040060007c0300001d
:020000040000fa
:040064007c03000019
:020000040000fa
:040068007c03000015
:020000040000fa
:04006c007c03000011
:020000040000fa
:040070007c0300000d
:020000040000fa
:040074007c03000009
:020000040000fa
:040078007c03000005
:020000040000fa
:04007c007c03000001
:020000040000fa
:040080007c030000fd
:020000040000fa
:040084007c030000f9
:020000040000fa
:040088007c030000f5
:020000040000fa
:04008c007c030000f1
:020000040000fa
:040090007c030000ed
:020000040000fa
:040094007c030000e9
:020000040000fa
:040098007c030000e5
:020000040000fa
:04009c007c030000e1
:020000040000fa
:0400a0007c030000dd
:020000040000fa
:0400a4007c030000d9
:020000040000fa
:0400a8007c030000d5
:020000040000fa
:0400ac007c030000d1
:020000040000fa
:0400b0007c030000cd
:020000040000fa
:0400b4007c030000c9
:020000040000fa
:0400b8007c030000c5
:020000040000fa
:0400bc007c030000c1
:020000040000fa
:0400c0007c030000bd
:020000040000fa
:0400c4007c030000b9
:020000040000fa
:0400c8007c030000b5
:020000040000fa
:0400cc007c030000b1
:020000040000fa
:0400d0007c030000ad
:020000040000fa
:0400d4007c030000a9
:020000040000fa
:0400d8007c030000a5
:020000040000fa
:0400dc007c030000a1
:020000040000fa
:0400e0007c0300009d
:020000040000fa
:0400e4007c03000099
:020000040000fa
:0400e8007c03000095
:020000040000fa
:0400ec007c03000091
:020000040000fa
:0400f0007c0300008d
:020000040000fa
:0400f4007c03000089
:020000040000fa
:0400f8007c03000085
:020000040000fa
:0400fc007c03000081
:020000040000fa
:040100007c0300007c
:020000040000fa
:040104007c03000078
:020000040000fa
:040108007c03000074
:020000040000fa
:04010c007c03000070
:020000040000fa
:040110007c0300006c
:020000040000fa
:040114007c03000068
:020000040000fa
:040118007c03000064
:020000040000fa
:04011c007c03000060
:020000040000fa
:040120007c0300005c
:020000040000fa
:040124007c03000058
:020000040000fa
:040128007c03000054
:020000040000fa
:04012c007c03000050
:020000040000fa
:040130007c0300004c
:020000040000fa
:040134007c03000048
:020000040000fa
:040138007c03000044
:020000040000fa
:04013c007c03000040
:020000040000fa
:040140007c0300003c
:020000040000fa
:040144007c03000038
:020000040000fa
:040148007c03000034
:020000040000fa
:04014c007c03000030
:020000040000fa
:040150007c0300002c
:020000040000fa
:040154007c03000028
:020000040000fa
:040158007c03000024
:020000040000fa
:04015c007c03000020
:020000040000fa
:040160007c0300001c
:020000040000fa
:040164007c03000018
:020000040000fa
:040168007c03000014
:020000040000fa
:04016c007c03000010
:020000040000fa
:040170007c0300000c
:020000040000fa
:040174007c03000008
:020000040000fa
:040178007c03000004
:020000040000fa
:04017c007c03000000
:020000040000fa
:040180007c030000fc
:020000040000fa
:040184007c030000f8
:020000040000fa
:040188007c030000f4
:020000040000fa
:04018c007c030000f0
:020000040000fa
:040190007c030000ec
:020000040000fa
:040194006c030000f8
:020000040000fa
:040198007c030000e4
:020000040000fa
:04019c007c030000e0
:020000040000fa
:0401a0007c030000dc
:020000040000fa
:0401a4007c030000d8
:020000040000fa
:0401a8007c030000d4
:020000040000fa
:0401ac007c030000d0
:020000040000fa
:0401b0007c030000cc
:020000040000fa
:0401b4007c030000c8
:020000040000fa
:0401b8007c030000c4
:020000040000fa
:0401bc007c030000c0
:020000040000fa
:0401c0007c030000bc
:020000040000fa
:0401c4007c030000b8
:020000040000fa
:0401c8007c030000b4
:020000040000fa
:0401cc007c030000b0
:020000040000fa
:0401d0007c030000ac
:020000040000fa
:0401d4007c030000a8
:020000040000fa
:0401d8007c030000a4
:020000040000fa
:0401dc007c030000a0
:020000040000fa
:0401e0007c0300009c
:020000040000fa
:0401e4007c03000098
:020000040000fa
:0401e8007c03000094
:020000040000fa
:0401ec007c03000090
:020000040000fa
:0401f0007c0300008c
:020000040000fa
:0401f4007c03000088
:020000040000fa
:0401f8007c03000084
:020000040000fa
:0401fc007c03000080
:020000040000fa
:040200007c0300007b
:020000040000fa
:040204007c03000077
:020000040000fa
:040208007c03000073
:020000040000fa
:04020c007c0300006f
:020000040000fa
:040210007c0300006b
:020000040000fa
:040214007c03000067
:020000040000fa
:040218007c03000063
:020000040000fa
:04021c007c0300005f
:020000040000fa
:040220007c0300005b
:020000040000fa
:040224007c03000057
:020000040000fa
:040228007c03000053
:020000040000fa
:04022c007c0300004f
:020000040000fa
:040230007c0300004b
:020000040000fa
:040234007c03000047
:020000040000fa
:040238007c03000043
:020000040000fa
:04023c007c0300003f
:020000040000fa
:040240007c0300003b
:020000040000fa
:040244007c03000037
:020000040000fa
:040248007c03000033
:020000040000fa
:04024c007c0300002f
:020000040000fa
:040250007c0300002b
:020000040000fa
:040254007c03000027
:020000040000fa
:040258007c03000023
:020000040000fa
:04025c007c0300001f
:020000040000fa
:040260007c0300001b
:020000040000fa
:040264007c03000017
:020000040000fa
:040268007c03000013
:020000040000fa
:04026c007c0300000f
:020000040000fa
:040270007c0300000b
:020000040000fa
:040274007c03000007
:020000040000fa
:040278007c03000003
:020000040000fa
:04027c007c030000ff
:020000040000fa
:040280007c030000fb
:020000040000fa
:040284007c030000f7
:020000040000fa
:040288007c030000f3
:020000040000fa
:04028c007c030000ef
:020000040000fa
:040290007c030000eb
:020000040000fa
:040294007c030000e7
:020000040000fa
:040298007c030000e3
:020000040000fa
:04029c007c030000df
:020000040000fa
:0402a0007c030000db
:020000040000fa
:0402a4007c030000d7
:020000040000fa
:0402a8007c030000d3
:020000040000fa
:0402ac007c030000cf
:020000040000fa
:0402b0007c030000cb
:020000040000fa
:0402b4007c030000c7
:020000040000fa
:0402b8007c030000c3
:020000040000fa
:0402bc007c030000bf
:020000040000fa
:0402c0007c030000bb
:020000040000fa
:0402c4007c030000b7
:020000040000fa
:0402c8007c030000b3
:020000040000fa
:0402cc007c030000af
:020000040000fa
:0402d0007c030000ab
:020000040000fa
:0402d4007c030000a7
:020000040000fa
:0402d8007c030000a3
:020000040000fa
:0402dc007c0300009f
:020000040000fa
:0402e0007c0300009b
:020000040000fa
:0402e4007c03000097
:020000040000fa
:0402e8007c03000093
:020000040000fa
:0402ec007c0300008f
:020000040000fa
:0402f0007c0300008b
:020000040000fa
:0402f4007c03000087
:020000040000fa
:0402f8007c03000083
:020000040000fa
:0402fc007c0300007f
:020000040000fa
:040300007c0300007a
:020000040000fa
:040304007c03000076
:020000040000fa
:040308007c03000072
:020000040000fa
:04030c007c0300006e
:020000040000fa
:040310007c0300006a
:020000040000fa
:040314007c03000066
:020000040000fa
:040318007c03000062
:020000040000fa
:04031c007c0300005e
:020000040000fa
:040320007c0300005a
:020000040000fa
:040324007c03000056
:020000040000fa
:040328007c03000052
:020000040000fa
:04032c007c0300004e
:020000040000fa
:040330007c0300004a
:020000040000fa
:040334007c03000046
:020000040000fa
:10040000ef0921000eff26000e0188000000000009
:10041000000020000000e000020032000001200087
:100420002002880014000700b50007000000e0006b
:1004300003003a00c09520000100200002003700b0
:100440000000200001002000810f70000100320038
:100450000f000700000020000000e0000200320052
:1004600000000200000000001c0402000000000068
:100470000040da000000fe00200020000000e00044
:1004800002003200100020009001880000000600e9
:10049000a1028800800478000000eb001f003700f4
:1004a000e284440054a0b4009905ba00e2844400f8
:1004b00054a0b4009906ba00e284440054a0b400e9
:1004c0000006eb00476fde00fd07b200ae018800ba
:1004d000636ce10003003a000ad801000000eb0061
:1004e0000e003700606ce10008003a00004deb00a0
:1004f0000a05e800020039003420ec000af0a000f0
:100500008b05e900f9ff3e00040037006168e10057
:10051000010032000086eb000b00070019c7ba008b
:100520001905ba000e04e00003003a000a00e000da
:10053000dbff3a0000000600fe07b200ae028800b2
:100540008a047800f5ff37000cd0a300e20f4d00bd
:100550001c00390089027800354dba000a05e80010
:10056000020039003420ec000af0a0008b05e900fd
:100570000f003200254dba000a05e80002003900dc
:100580003420ec000af0a0008b05e90008003200de
:100590000c00e0000600320015cdba000a05e800a4
:1005a000020039003420ec000af0a0008b05e900bd
:1005b0008984e80054a0b4000b00e000e2ff3a0098
:1005c000000006009902ba00055d78008b05e9007d
:1005d000f7ff3200c82ade00055d78008b05e900d0
:1005e000f3ff32000c00e000f1ff320019ddba0029
:1005f000eeff37004a09040000000000e405040093
:100600000000000072050400000000001406040051
:10061000000000000806040000000000fa050400c5
:10062000000000004e060400000000006806040000
:10063000000000008208040000000000960804008a
:1006400000000000aa08040000000000be0804002a
:1006500000000000d208040000000000e6080400ca
:1006600000000000fa080400000000000e09040069
:100670000000000022090400000000003609040008
:10068000000000002e080400000000003c080400e8
:10069000000000004a0804000000000058080400a0
:1006a000000000006608040000000000801f7800c1
:1006b0000000fa000670ef00100020002080880083
:1006c0000e30ef0001e1a9000028a9000080fa0027
:1006d0004f00780000400600801f78000000fa00fc
:1006e00060608000408088000b68a9000080fa00ec
:1006f0004f007800004006000040da000000fe00d5
:1007000000000500889fbe00908080000000e0008f
:100710000100320000000100a08080000000e00025
:100720000100320000000100000121001004e0007f
:1007300022003a00d0848000e184800088002000fc
:10074000d26026009301200035000700f2352f000b
:10075000e3c6230000004100818049000804e9004d
:10076000f7ff3a006801210009082000888444004e
:10077000d26026009301200029000700f2352f00e7
:10078000e3c62300000041008180490000acbe00a8
:10079000890f5400f6ff3a00d0848800e184880075
:1007a000b0848000c1848000b0808800c18088004f
:1007b00011c0b3000001210001487800d26026007a
:1007c00093012000d0848000e184800014000700a1
:1007d000f2352f00e3c62300000241008182490068
:1007e000d4848800e584880060012100100078002e
:1007f0007f0160004211dd00a001210002014000e4
:100800001200be00b0808800c18088000489be004c
:100810000100780000f0a1004f04be0000000600b7
:10082000020ab900001bb9000200b80081004200b2
:080830008100430000000600f6
:020000040000fa
:100838000000fa00317c8000f08f2f0000806000fb
:100848000080a000307c88002028a8000028a9008b
:100858003a0ea8003bcea8001feea8001e4ea90025
:100868003a6ea90057eea9008f0fa800717c80008e
:1008780000fc2f00008060000000a000707c880051
:10088800d1072000b0210a00900f0000917c800061
:10089800f0f82f00008060000050a000907c8800d5
:1008a800917c800080ff2f00008060000000a00085
:1008b800907c88008fefa80001648000f0f32f007f
:1008c800008060000070a0000064880081eca8002f
:1008d80089eca800892ca800d10c2000b0210a00be
:1008e8008c0c00007164800000002f008080600084
:1008f80020f32000010070007064880010002000c0
:10090800a0648800934ca80093eca8000030ef0086
:10091800568ea900566ea9001f8ea9003beea900ad
:100928003baea9003a0ea9003aeea9001eeea900b6
:100938001f0ea9001f2ea9003b0ea900000ea8003b
:10094800002ea800004ea800020ea800022ea80043
:10095800024ea8001160800000f020000100700025
:100968001060880001eba800000ca800000000003f
:100978000160800000102000008060000000e0009e
:10098800fbff32000a0ba80051588000f0ff23003b
:100998000080600000e0a000505888005158800096
:1009a800f00f2c000080600050588800b15e800075
:1009b80000f82f0000806000b05e8800d15e8000e3
:1009c80000f82f0000806000d05e88004158800049
:1009d800f0ff2100008060004058880002eba90069
:1009e800100ba900102ba900200ba8000b68a90068
:1009f8002b68a800015c800000fe2f0000806000ca
:100a08000000a000005c8800a09420000000010005
:100a1800e0718000610060000000e0000b003a0017
:100a28000430ef0061808000007122008088b900e6
:100a38000080ea0040088800405e200000000100b5
:100a48002057200000000100efff3700416120001f
:100a58000000eb0001000100100020006080880009
:100a6800224ea9003e6ea900e7ff37000400fa00f5
:100a780010079800508080009e009000808f5000e2
:100a880003003a0010002000000f78000200370031
:100a98000000eb00000f78001e0078000080fa00cc
:100aa800000006000000fa000021ef0001088000a5
:100ab8000030200001007000000888000108800054
:100ac8000003200001007000000888000021a90030
:100ad8000421ef000080fa00000006000400fa007c
:100ae80010002000708088000000eb0010079800bc
:100af8000000eb00000f78001e003700e171800055
:100b080000002400008060000000e00004003a00bb
:100b18000e30ef0010002000d4ff0700000f78000f
:100b28000171800000002400008060000000e000e7
:100b380004003a000e30ef0020002000cbff070031
:100b4800000f780050808000e30f500009003a0041
:100b5800a09420000000010061042000810f5000d3
:100b6800040034000e30ef0030002000bfff070003
:100b7800000f7800708080000000e000dfff3a007e
:100b88001e0078000000e000030032002080800092
:100b9800e10f500003003a008060200000000100cf
:100ba800050037001e007800e10f500002003a00ef
:100bb800a05f2000000001000080fa00000006008d
:100bc8000000fa00cdfe0700310020000101780086
:100bd800050009000200d8008000fd005080880050
:100be80001e1a8000080fa00000006000000fa00f9
:100bf800f3ff070041612000100020000100010000
:100c08000080fa00000006000000fa0041612000a0
:100c18000000eb00010001000080fa00000006005f
:100c28000200fa00000f78001e007800e10f500063
:100c380012003a00108080000000e8001080880050
:100c48001180800050002000000178000500090094
:100c58008200d8008000fd000000e00003003a0098
:100c6800608080000000e80060808800e164200067
:100c78001080800001000100040037001e00780089
:100c88000000e00001003a000230ef000080fa00a6
:100c9800000006000200fa00000f780000808000c3
:100ca8009e007800808f5000050034009e00780078
:100cb800018088008166200000808000010001001a
:100cc8000080fa00000006000e00fa006007980095
:100cd8000021ef00010880000030200001007000b2
:100ce800000888000108800000032000010070004f
:100cf800000888000021a9000421ef00a0aa2a000a
:100d0800400888002028a8000028a90001e1a800c0
:100d1800ee009000a0002000000178000500090006
:100d28008200d8008000fd00500798006e019000f6
:100d3800706626000090b900c288de004f90de0081
:100d480000805000716626000181b9004299de00da
:100d5800cf80de00010f51009e007800ea09b9003b
:100d680082007800010f50006e019000b04721000a
:100d78000090b900c388de004f90de0080805000ec
:100d8800a000200000017800050009008200d800ba
:100d98008000fd0010079800ee009000803e2000c3
:100da80000017800050009008200d8008000780062
:100db800a000200000017800050009008200d8008a
:100dc8008000fd00200798002e0090000000e00041
:100dd8000c003a000080eb00200798001e009000ed
:100de8000000e00007003a000080eb0010079800c0
:100df8001e0078000000e00002003a000080eb00ce
:100e0800000f78000000eb003007980010c0b30016
:100e180006f0b700770037004e0090000000e000b1
:100e280003003a0020882000000001003500370048
:100e38004e009000e10f500003003a006089200046
:100e4800000001002f0037004e009000e20f500014
:100e580003003a00a08a20000000010029003700a2
:100e68004e009000e30f500003003a00e08b200092
:100e780000000100230037004e009000e40f5000ee
:100e880003003a00208d2000000001001d003700fb
:100e98004e009000e50f500003003a00608e2000dd
:100ea80000000100170037004e009000e60f5000c8
:100eb80003003a00a08f2000000001001100370055
:100ec8004e009000e70f500003003a00e090200029
:100ed800000001000b0037004e009000e80f5000a2
:100ee80003003a00209220000000010005003700ae
:100ef8004e009000e90f500002003a006093200075
:100f0800000001003e0090000000e0000b003a00e5
:100f18000071220001002000f6000700e082200096
:100f280000000100de009000410798003e0090009c
:100f38000000e800300798002e0037003e009000bf
:100f4800e10f50000e003a001e007800e10f40004b
:100f5800070032000071220001002000e5000700b0
:100f6800c0832000000001001e017800420798009d
:100f78003e0090000000e800300798001d00370090
:100f88003e009000e20f50000e003a001e00900054
:100f9800e10f40000700320000712200010020002c
:100fa800d4000700a0842000000001009e009000eb
:100fb800410798003e0090000000e80030079800c4
:100fc8000c0037002e009000e10f400007003200af
:100fd8000071220001002000c60007008085200063
:100fe800000001002e019000420798000000eb006d
:100ff8003007980006d0bf000004e00086ff3a00e2
:1010080060862000000001000080fa000000060051
:101018000400fa00100798000000eb00000f7800a9
:10102800060037005beea800003e290041002000c2
:10103800b00007005beea9001e0fe8001e0090003c
:101048009e007800808f5000f6ff35000080fa007f
:10105800000006000000fa005a8ea9005a6ea90086
:10106800238ea9003feea8000080fa0000000600c9
:101078000000fa005a8ea9005a6ea900238ea80013
:101088003feea9000080fa00000006000000fa0008
:101098005a8ea9005a6ea800238ea9003feea90017
:1010a8000080fa00000006000000fa005a8ea8002e
:1010b8005a6ea900238ea9003feea9000080fa000d
:1010c800000006000000fa005a8ea9005a6ea90016
:1010d800238ea9003feea9003faea8003e0ea8004f
:1010e8003eeea80022eea800230ea800232ea8009a
:1010f8003f0ea8000080fa00000006000000fa0079
:101108003faea9003e0ea9003eeea90022eea900be
:10111800230ea900232ea9003f0ea8000080fa0084
:10112800000006000000fa003faea8003e0ea9002d
:101138003eeea90022eea800230ea800232ea80048
:101148003f0ea8000080fa00000006000000fa0028
:101158003faea9003e0ea9003eeea80022eea9006f
:10116800230ea900232ea8003f0ea9000080fa0034
:10117800000006000000fa003faea9003e0ea900dc
:101188003eeea90022eea900230ea800232ea800f7
:101198003f0ea9000080fa00000006000000fa00d7
:1011a8003faea8003e0ea9003eeea90022eea80020
:1011b800230ea800232ea9003f0ea9000080fa00e4
:1011c800000006000000fa003faea9003e0ea8008d
:1011d8003eeea90022eea900230ea800232ea900a6
:1011e8003f0ea9000080fa00000006000000fa0087
:1011f8003faea9003e0ea8003eeea90022eea900cf
:10120800230ea900232ea9003f0ea9000080fa0092
:10121800000006000000fa003faea9003e0ea9003b
:101228003eeea90022eea800230ea800232ea80057
:101238003f0ea8000080fa00000006000000fa0037
:101248003faea9003e0ea9003eeea90022eea9007d
:10125800230ea900232ea9003f0ea9000080fa0042
:10126800000006000000fa003faea9003e0ea900eb
:101278003eeea90022eea800230ea800232ea90006
:101288003f0ea9000080fa00000006000000fa00e6
:1012980008cba80000d4200031002000150007006a
:1012a8004080800088fe07000080fa0000000600e9
:020000040000fa
:1012b8000a1000000600000082000000ffff010085
:1012c80000010000001000000a000000800000007b
:1012d8009a100000040000008200000001000000d5
:1012e80000000000101000008a00000080000000cc
:0412f80000000000f2
:020000040000fa
:1012fc00f03fb1000180b10006003500ee0309009b
:10130c0000000000403fb1000180b100fbff3d0038
:10131c001000b000203fb000020035000080090032
:08132c000000000000000600b3
:020000040000fa
:020000040005f5
:047e0000ffffff0081
:020000040000fa
:020000040005f5
:047e2000ffffff0061
:020000040000fa
:020000040005f5
:047e30007fffff00d1
:020000040000fa
:020000040005f5
:047e3800bfffff0089
:020000040000fa
:020000040005f5
:047e4000ffffff0041
:020000040000fa
:020000040005f5
:047e4800ffffff0039
:020000040000fa
:020000040005f5
:047e5000deffff0052
:020000040000fa
:020000040005f5
:047e5800ffffff0029
:020000040000fa
:020000040005f5
:047e6000ffffff0021
:020000040000fa
:020000040005f5
:047e6800ffffff0019
:020000040000fa
:020000040005f5
:047e7000ffffff0011
:020000040000fa
:020000040005f5
:047e7800ffffff0009
:020000040000fa
:020000040005f5
:047e8000fffcff0004
:020000040000fa
:020000040005f5
:047e8800ffffff00f9
:020000040000fa
:020000040005f5
:047ff800ffffff0088
:00000001FF
