:020000040000fa
:080000000002040000000000f2
:020000040000fa
:04000800c20300002f
:020000040000fa
:04000c00c20300002b
:020000040000fa
:04001000c203000027
:020000040000fa
:04001400c203000023
:020000040000fa
:04001800c20300001f
:020000040000fa
:04001c00c20300001b
:020000040000fa
:04002000c203000017
:020000040000fa
:04002400c203000013
:020000040000fa
:04002800c20300000f
:020000040000fa
:04002c006e0300005f
:020000040000fa
:04003000c203000007
:020000040000fa
:04003400c203000003
:020000040000fa
:04003800c2030000ff
:020000040000fa
:04003c00c2030000fb
:020000040000fa
:040040009403000025
:020000040000fa
:04004400c2030000f3
:020000040000fa
:04004800c2030000ef
:020000040000fa
:04004c00c2030000eb
:020000040000fa
:04005000c2030000e7
:020000040000fa
:04005400c2030000e3
:020000040000fa
:04005800c2030000df
:020000040000fa
:04005c00c2030000db
:020000040000fa
:04006000c2030000d7
:020000040000fa
:04006400c2030000d3
:020000040000fa
:04006800c2030000cf
:020000040000fa
:04006c00c2030000cb
:020000040000fa
:04007000c2030000c7
:020000040000fa
:04007400c2030000c3
:020000040000fa
:04007800c2030000bf
:020000040000fa
:04007c00c2030000bb
:020000040000fa
:04008000c2030000b7
:020000040000fa
:04008400c2030000b3
:020000040000fa
:04008800c2030000af
:020000040000fa
:04008c00c2030000ab
:020000040000fa
:04009000c2030000a7
:020000040000fa
:04009400c2030000a3
:020000040000fa
:04009800c20300009f
:020000040000fa
:04009c00c20300009b
:020000040000fa
:0400a000c203000097
:020000040000fa
:0400a400c203000093
:020000040000fa
:0400a800c20300008f
:020000040000fa
:0400ac00c20300008b
:020000040000fa
:0400b000c203000087
:020000040000fa
:0400b400c203000083
:020000040000fa
:0400b800c20300007f
:020000040000fa
:0400bc00c20300007b
:020000040000fa
:0400c000c203000077
:020000040000fa
:0400c400c203000073
:020000040000fa
:0400c800c20300006f
:020000040000fa
:0400cc00c20300006b
:020000040000fa
:0400d000c203000067
:020000040000fa
:0400d400c203000063
:020000040000fa
:0400d800c20300005f
:020000040000fa
:0400dc00c20300005b
:020000040000fa
:0400e000c203000057
:020000040000fa
:0400e400c203000053
:020000040000fa
:0400e800c20300004f
:020000040000fa
:0400ec00c20300004b
:020000040000fa
:0400f000c203000047
:020000040000fa
:0400f400c203000043
:020000040000fa
:0400f800c20300003f
:020000040000fa
:0400fc00c20300003b
:020000040000fa
:04010000c203000036
:020000040000fa
:04010400c203000032
:020000040000fa
:04010800c20300002e
:020000040000fa
:04010c00c20300002a
:020000040000fa
:04011000c203000026
:020000040000fa
:04011400c203000022
:020000040000fa
:04011800c20300001e
:020000040000fa
:04011c00c20300001a
:020000040000fa
:04012000c203000016
:020000040000fa
:04012400c203000012
:020000040000fa
:04012800c20300000e
:020000040000fa
:04012c00c20300000a
:020000040000fa
:04013000c203000006
:020000040000fa
:04013400c203000002
:020000040000fa
:04013800c2030000fe
:020000040000fa
:04013c00c2030000fa
:020000040000fa
:04014000c2030000f6
:020000040000fa
:04014400c2030000f2
:020000040000fa
:04014800c2030000ee
:020000040000fa
:04014c00c2030000ea
:020000040000fa
:04015000c2030000e6
:020000040000fa
:04015400c2030000e2
:020000040000fa
:04015800c2030000de
:020000040000fa
:04015c00c2030000da
:020000040000fa
:04016000c2030000d6
:020000040000fa
:04016400c2030000d2
:020000040000fa
:04016800c2030000ce
:020000040000fa
:04016c00c2030000ca
:020000040000fa
:04017000c2030000c6
:020000040000fa
:04017400c2030000c2
:020000040000fa
:04017800c2030000be
:020000040000fa
:04017c00c2030000ba
:020000040000fa
:04018000c2030000b6
:020000040000fa
:04018400c2030000b2
:020000040000fa
:04018800c2030000ae
:020000040000fa
:04018c00c2030000aa
:020000040000fa
:04019000c2030000a6
:020000040000fa
:0401940084030000e0
:020000040000fa
:04019800c20300009e
:020000040000fa
:04019c00c20300009a
:020000040000fa
:0401a000c203000096
:020000040000fa
:0401a400c203000092
:020000040000fa
:0401a800c20300008e
:020000040000fa
:0401ac00c20300008a
:020000040000fa
:0401b000c203000086
:020000040000fa
:0401b400c203000082
:020000040000fa
:0401b800c20300007e
:020000040000fa
:0401bc00c20300007a
:020000040000fa
:0401c000c203000076
:020000040000fa
:0401c400c203000072
:020000040000fa
:0401c800c20300006e
:020000040000fa
:0401cc00c20300006a
:020000040000fa
:0401d000c203000066
:020000040000fa
:0401d400c203000062
:020000040000fa
:0401d800c20300005e
:020000040000fa
:0401dc00c20300005a
:020000040000fa
:0401e000c203000056
:020000040000fa
:0401e400c203000052
:020000040000fa
:0401e800c20300004e
:020000040000fa
:0401ec00c20300004a
:020000040000fa
:0401f000c203000046
:020000040000fa
:0401f400c203000042
:020000040000fa
:0401f800c20300003e
:020000040000fa
:0401fc00c20300003a
:020000040000fa
:04020000c203000035
:020000040000fa
:04020400c203000031
:020000040000fa
:04020800c20300002d
:020000040000fa
:04020c00c203000029
:020000040000fa
:04021000c203000025
:020000040000fa
:04021400c203000021
:020000040000fa
:04021800c20300001d
:020000040000fa
:04021c00c203000019
:020000040000fa
:04022000c203000015
:020000040000fa
:04022400c203000011
:020000040000fa
:04022800c20300000d
:020000040000fa
:04022c00c203000009
:020000040000fa
:04023000c203000005
:020000040000fa
:04023400c203000001
:020000040000fa
:04023800c2030000fd
:020000040000fa
:04023c00c2030000f9
:020000040000fa
:04024000c2030000f5
:020000040000fa
:04024400c2030000f1
:020000040000fa
:04024800c2030000ed
:020000040000fa
:04024c00c2030000e9
:020000040000fa
:04025000c2030000e5
:020000040000fa
:04025400c2030000e1
:020000040000fa
:04025800c2030000dd
:020000040000fa
:04025c00c2030000d9
:020000040000fa
:04026000c2030000d5
:020000040000fa
:04026400c2030000d1
:020000040000fa
:04026800c2030000cd
:020000040000fa
:04026c00c2030000c9
:020000040000fa
:04027000c2030000c5
:020000040000fa
:04027400c2030000c1
:020000040000fa
:04027800c2030000bd
:020000040000fa
:04027c00c2030000b9
:020000040000fa
:04028000c2030000b5
:020000040000fa
:04028400c2030000b1
:020000040000fa
:04028800c2030000ad
:020000040000fa
:04028c00c2030000a9
:020000040000fa
:04029000c2030000a5
:020000040000fa
:04029400c2030000a1
:020000040000fa
:04029800c20300009d
:020000040000fa
:04029c00c203000099
:020000040000fa
:0402a000c203000095
:020000040000fa
:0402a400c203000091
:020000040000fa
:0402a800c20300008d
:020000040000fa
:0402ac00c203000089
:020000040000fa
:0402b000c203000085
:020000040000fa
:0402b400c203000081
:020000040000fa
:0402b800c20300007d
:020000040000fa
:0402bc00c203000079
:020000040000fa
:0402c000c203000075
:020000040000fa
:0402c400c203000071
:020000040000fa
:0402c800c20300006d
:020000040000fa
:0402cc00c203000069
:020000040000fa
:0402d000c203000065
:020000040000fa
:0402d400c203000061
:020000040000fa
:0402d800c20300005d
:020000040000fa
:0402dc00c203000059
:020000040000fa
:0402e000c203000055
:020000040000fa
:0402e400c203000051
:020000040000fa
:0402e800c20300004d
:020000040000fa
:0402ec00c203000049
:020000040000fa
:0402f000c203000045
:020000040000fa
:0402f400c203000041
:020000040000fa
:0402f800c20300003d
:020000040000fa
:0402fc00c203000039
:020000040000fa
:04030000c203000034
:020000040000fa
:04030400c203000030
:020000040000fa
:04030800c20300002c
:020000040000fa
:04030c00c203000028
:020000040000fa
:04031000c203000024
:020000040000fa
:04031400c203000020
:020000040000fa
:04031800c20300001c
:020000040000fa
:04031c00c203000018
:020000040000fa
:04032000c203000014
:020000040000fa
:04032400c203000010
:020000040000fa
:04032800c20300000c
:020000040000fa
:04032c00c203000008
:020000040000fa
:04033000c203000004
:020000040000fa
:04033400c203000000
:020000040000fa
:100400008f0a21000eff26000e0188000000000068
:10041000000020000000e000020032000001200087
:100420002002880014000700d80007000000e00048
:1004300003003a0060bb20000100200002003700ea
:100440000000200001002000810f70000100320038
:100450000f000700000020000000e0000200320052
:100460000000020000000000620402000000000022
:100470000040da000000fe00200020000000e00044
:1004800002003200100020009001880000000600e9
:10049000a1028800800478000000eb001f003700f4
:1004a000e284440054a0b4009905ba00e2844400f8
:1004b00054a0b4009906ba00e284440054a0b400e9
:1004c0000006eb00476fde00fd07b200ae018800ba
:1004d000636ce10003003a000ad801000000eb0061
:1004e0000e003700606ce10008003a00004deb00a0
:1004f0000a05e800020039003420ec000af0a000f0
:100500008b05e900f9ff3e00040037006168e10057
:10051000010032000086eb000b00070019c7ba008b
:100520001905ba000e04e00003003a000a00e000da
:10053000dbff3a0000000600fe07b200ae028800b2
:100540008a047800f5ff37000cd0a300e20f4d00bd
:100550001c00390089027800354dba000a05e80010
:10056000020039003420ec000af0a0008b05e900fd
:100570000f003200254dba000a05e80002003900dc
:100580003420ec000af0a0008b05e90008003200de
:100590000c00e0000600320015cdba000a05e800a4
:1005a000020039003420ec000af0a0008b05e900bd
:1005b0008984e80054a0b4000b00e000e2ff3a0098
:1005c000000006009902ba00055d78008b05e9007d
:1005d000f7ff3200c82ade00055d78008b05e900d0
:1005e000f3ff32000c00e000f1ff320019ddba0029
:1005f000eeff37002c0a0400000000008c05040008
:1006000000000000e404040000000000e405040011
:10061000000000000209040000000000b005040012
:1006200000000000ca05040000000000dc07040010
:10063000000000001e060400000000003806040050
:1006400000000000640904000000000078090400b4
:10065000000000008c09040000000000a009040054
:1006600000000000b409040000000000c8090400f4
:1006700000000000dc09040000000000f009040094
:1006800000000000040a040000000000180a040032
:100690000000000010090400000000001e09040012
:1006a000000000002c090400000000003a090400ca
:1006b0000000000048090400000000005e0a040079
:1006c00000000000b60a040000000000d20a040086
:1006d000000000007a0b040000000000801f78007a
:1006e0000000fa000670ef001430ef001000200048
:1006f0007080880001e1a9000028a9000080fa00ac
:100700004f00780000400600801f78000000fa00cb
:1007100060608000408088000b68a9000080fa00bb
:100720004f007800004006003600f800809fbe00b1
:10073000829fbe00849fbe00869fbe003200f800ec
:100740003400f80010002000a001880010002000f4
:1007500000d0fe000000fa002b02070000c8a9002c
:100760000080fa003400f9003200f9004f03be00a7
:100770004f02be004f01be004f00be003600f90020
:10078000004006000040da000000fe000000050006
:10079000889fbe00e08080000000e0000100320081
:1007a00000000100f08080000000e0000100320045
:1007b00000000100a00121001004e00022003a0026
:1007c000208580003185800088002000d2602600ce
:1007d0009301200035000700f2352f00e3c6230007
:1007e00000004100818049000804e900f7ff3a0059
:1007f000080221000908200088844400d2602600f5
:100800009301200029000700f2352f00e3c62300e2
:10081000000041008180490000acbe00890f5400f7
:10082000f6ff3a0020858800318588000085800029
:1008300011858000008188001181880011c0b300fb
:10084000a001210001487800d26026009301200019
:10085000208580003185800014000700f2352f00cc
:10086000e3c62300000241008182490024858800fc
:100870003585880000022100100078007f016000ab
:100880004211dd0040022100020140001200be00c2
:1008900000818800118188000489be000100780071
:1008a00000f0a1004f04be0000000600020ab900db
:1008b000001bb9000200b800810042008100430023
:0408c000000006002e
:020000040000fa
:1008c4000000fa00c0a22000000001000030ef0088
:1008d4000171800000002800008060000000e0003a
:1008e4000a003a000430ef00b08080000000e0000d
:1008f40003003200c0582000000001001630ef0051
:10090400404e200000000100f1ff3700415e20004e
:100914000000eb000100010010002000908088001e
:1009240010002000b0808800224ea9005b6ea90050
:10093400e7ff37000400fa00100798008080800069
:100944009e009000808f500003003a0010002000a9
:10095400000f7800020037000000eb00000f780061
:100964001e0078000080fa00000006000000fa0073
:100974000021ef0001088000003020000100700019
:1009840000088800010880000003200001007000b6
:10099400000888000021a9000421ef009180800054
:1009a400803e20008088b9000080ea00400888006a
:1009b4002028a8000028a90001e1a8000080fa006e
:1009c400000006000400fa0010002000a080880047
:1009d4000000eb00000f78000e30ef000000eb0089
:1009e4001007980036003700e171800000002400f1
:1009f400008060000000e00004003a001430ef00c2
:100a040010002000cbff0700000f78000171800068
:100a140000002400008060000000e00005003200b7
:100a24000171800000002200008060000000e000ee
:100a340004003a001430ef0020002000bdff07003e
:100a4400000f780020902000000001001e0090009c
:100a54000000e00003003a00408080007400400081
:100a640010079800418080001e009000808f500085
:100a74000a00350080808000e30f500007003a0030
:100a84001e0090000000e000040032001430ef006b
:100a940030002000a7ff0700000f7800f6020700cf
:100aa400e10f4000060032001430ef000080eb003c
:100ab400c0808800400020009eff0700000f7800df
:100ac400a08080000000e000050032000171800079
:100ad40000002800008060000000e000c2ff320037
:100ae4001e007800e10f500006003a00708080007c
:100af4000000e00003003a00005b20000000010059
:100b040002003700a05c2000000001000080fa0011
:100b1400000006000000fa001cff07003100280056
:100b2400010060000000e00004003d000000e90056
:100b3400c1ff2f00008070000000e8000000e80002
:100b440080808800c17d2000808080000100010039
:100b540086ff07000080fa00000006000000fa008b
:100b640001e1a900415e2000100020000100010005
:100b7400224ea80000e22400010020000d0307001b
:100b8400224ea900e3ff07000080fa0000000600df
:100b94000000fa005b6ea80000242400f10020008d
:100ba400040307005b6ea90010002000b0808800d9
:100bb400415e20000000eb00010001000080fa000b
:100bc400000006000200fa00000f78001e00780002
:100bd400e10f50000f003a00108080000000e80090
:100be40010808800118080005000200000017800ef
:100bf400050009008200d8008000fd000000e0002c
:100c04000b003a00908080000000e800908088008b
:100c1400070037001e0078000000e00004003a00de
:100c2400e161200010808000010001000230ef002b
:100c34000080fa00000006000200fa00000f7800ad
:100c4400008080009e007800808f500005003400f2
:100c54009e0078000180880081632000008080006d
:100c6400010001000080fa00000006000e00fa00f6
:100c7400600798000021ef00010880000030200088
:100c840001007000000888000108800000032000b3
:100c940001007000000888000021a9000421ef0071
:100ca400a0aa2a00400888002028a8000028a9003b
:100cb40001e1a800ee009000a000200000017800ef
:100cc400050009008200d8008000fd00500798004c
:100cd4006e019000706626000090b900c288de00a4
:100ce4004f90de0000805000716626000181b9003b
:100cf4004299de00cf80de00010f51009e00780093
:100d0400ea09b90082007800010f50006e019000da
:100d1400b04721000090b900c388de004f90de0088
:100d240080805000a0002000000178000500090028
:100d34008200d8008000fd0010079800ee009000ab
:100d4400803e200000017800050009008200d800e0
:100d540080007800a0002000000178000500090050
:100d64008200d8008000fd00200798002e0090002b
:100d74000000e0000c003a000080eb00200798001f
:100d84001e0090000000e00007003a000080eb0025
:100d9400100798001e0078000000e00002003a00ee
:100da4000080eb00000f78000000eb003007980093
:100db40010c0b30006f0b700770037004e00900073
:100dc4000000e00003003a0040962000000001000b
:100dd400350037004e009000e10f500003003a0048
:100de40080972000000001002f0037004e00900083
:100df400e20f500003003a00c098200000000100f8
:100e0400290037004e009000e30f500003003a0021
:100e1400009a200000000100230037004e009000db
:100e2400e40f500003003a00409b20000000010042
:100e34001d0037004e009000e50f500003003a00fb
:100e4400809c200000000100170037004e00900035
:100e5400e60f500003003a00c09d2000000001008e
:100e6400110037004e009000e70f500003003a00d5
:100e7400009f2000000001000b0037004e0090008e
:100e8400e80f500003003a0040a0200000000100d9
:100e9400050037004e009000e90f500002003a00b0
:100ea40080a12000000001003e0090000000e0004e
:100eb4000b003a0000712200010020003d020700ef
:100ec4000091200000000100de009000410798001e
:100ed4003e0090000000e800300798002e00370024
:100ee4003e009000e10f50000e003a001e00780012
:100ef400e10f4000070032000071220001002000d1
:100f04002c020700e0912000000001001e0178007f
:100f1400420798003e0090000000e8003007980067
:100f24001d0037003e009000e20f50000e003a0012
:100f34001e009000e10f4000070032000071220003
:100f4400010020001b020700c092200000000100e5
:100f54009e009000410798003e0090000000e800c9
:100f6400300798000c0037002e009000e10f40007d
:100f74000700320000712200010020000d0207006a
:100f8400a0932000000001002e0190004207980069
:100f94000000eb003007980006d0bf000004e0001a
:100fa40086ff3a0080942000000001000080fa00cf
:100fb400000006000400fa00100798000000eb008f
:100fc400000f7800060037005beea800003e290001
:100fd40041002000f70107005beea9001e0fe800a6
:100fe4001e0090009e007800808f5000f6ff3500b0
:100ff400006c2c00d1022000ee0107000080fa00f2
:10100400000006000400fa00c0808000e10f4000e8
:101014006c003a000000eb00000f78000400370079
:101024001e0fe8004006200001002000e101070037
:10103400e0718000680060000000e00004003200fd
:10104400a00520009e007800808f5000f4ff34003b
:10105400a00520009e007800808f50005b003c00bb
:10106400700220009e007800808f500059003400e8
:101074000000eb00100798004e0037000000eb0062
:10108400000f7800040037001e0fe800400620001f
:1010940001002000c7010700e071800068006000c3
:1010a4000000e00003003a001e007800f70f500033
:1010b400f5ff34001e007800f60f500047003c0096
:1010c4001e007800e30f5000460034000000eb00df
:1010d400000f7800040037001e0fe80040062000cf
:1010e40001002000b3010700e07180006800600087
:1010f4000000e00004003200d00220009e007800ce
:10110400808f5000f4ff3400c00220009e0078005d
:10111400808f500035003c001e007800e70f50001f
:10112400340034001e007800f50f50000f00340026
:101134001e0090007f01100010002000010020001c
:10114400820178008301e9000300330000004000bd
:1011540081804800fbff370080007800c080800059
:1011640001007000c08088000f0037001e0090004e
:101174007f0110001000200001002000820178008f
:101184008301e9000300330000004000818048002f
:10119400fbff3700000078008080ea00c0808000f8
:1011a40000806000c08088001e0090000000e800fd
:1011b400100798001e009000ff0f5000afff34008e
:1011c4000d003700000000000b0037000000000095
:1011d400090037000000000007003700000000008d
:1011e4000500370000000000030037000000000085
:1011f40001003700000000000080fa000000060033
:101204000000fa0008cba80000d420003100200020
:10121400680107000080fa00000006000000fa00e0
:101224005a8ea9005a6ea900238ea9003feea80089
:101234000080fa00000006000000fa005a8ea9009f
:101244005a6ea900238ea8003feea9000080fa0080
:10125400000006000000fa005a8ea9005a6ea80089
:10126400238ea9003feea9000080fa0000000600ca
:101274000000fa005a8ea8005a6ea900238ea90015
:101284003feea9000080fa00000006000000fa000a
:101294005a8ea9005a6ea900238ea9003feea90018
:1012a4003faea8003e0ea8003eeea80022eea80025
:1012b400230ea800232ea8003f0ea8000080fa00e9
:1012c400000006000000fa003faea9003e0ea9008f
:1012d4003eeea90022eea900230ea900232ea900a8
:1012e4003f0ea8000080fa00000006000000fa008b
:1012f4003faea8003e0ea9003eeea90022eea800d3
:10130400230ea800232ea8003f0ea8000080fa0098
:10131400000006000000fa003faea9003e0ea9003e
:101324003eeea80022eea900230ea900232ea80059
:101334003f0ea9000080fa00000006000000fa0039
:101344003faea9003e0ea9003eeea90022eea90080
:10135400230ea800232ea8003f0ea9000080fa0047
:10136400000006000000fa003faea8003e0ea900ef
:101374003eeea90022eea800230ea800232ea90009
:101384003f0ea9000080fa00000006000000fa00e9
:101394003faea9003e0ea8003eeea90022eea90031
:1013a400230ea800232ea9003f0ea9000080fa00f6
:1013b400000006000000fa003faea9003e0ea8009f
:1013c4003eeea90022eea900230ea900232ea900b7
:1013d4003f0ea9000080fa00000006000000fa0099
:1013e4003faea9003e0ea9003eeea90022eea800e1
:1013f400230ea800232ea8003f0ea8000080fa00a8
:10140400000006000000fa003faea9003e0ea9004d
:101414003eeea90022eea900230ea900232ea90066
:101424003f0ea9000080fa00000006000000fa0048
:101434003faea9003e0ea9003eeea90022eea80090
:10144400230ea800232ea9003f0ea9000080fa0055
:10145400000006000000fa00317c8000f08f2f00ad
:10146400008060000080a000307c88002028a80054
:101474000028a9001feea8003bcea8001fcea8009c
:101484001faea8001e4ea900576ea90057eea90072
:10149400e0a520000000010060ab20000000010076
:1014a40020ad200000000100a0b7200000000100d2
:1014b4000080fa00000006000000fa008f0fa80068
:1014c400717c800000fc2f00008060000000a00000
:1014d400707c8800d1072000b0210a00900f000022
:1014e400917c8000f0f82f00008060000050a00084
:1014f400907c8800917c800080ff2f000080600039
:101504000000a000907c88008fefa8000164800098
:10151400f0f32f00008060000070a00000648800d9
:1015240081eca80089eca800892ca800d10c20002b
:10153400b0210a008c0c00007164800000002f00b0
:101544008080600020f32000010070007064880037
:1015540010002000a0648800934ca80093eca8001d
:101564000080fa00000006000000fa00568ea90070
:10157400566ea9001f8ea9003beea9003baea90040
:101584003a0ea9003aeea9001eeea9001f0ea9000a
:101594001f2ea9003b0ea9000080fa0000000600df
:1015a4000000fa00000ea800002ea800004ea800bb
:1015b400020ea800022ea800024ea80011608000ae
:1015c40000f02000010070001060880001eba8000a
:1015d400000ca80000000000016080000010200042
:1015e400008060000000e000fbff32000a0ba8004e
:1015f40051588000f0ff23000080600000e0a0004c
:101604005058880051588000f00f2c000080600072
:1016140050588800b15e800000f82f000080600000
:10162400b05e8800d15e800000f82f00008060006a
:10163400d05e880041588000f0ff210000806000e7
:101644004058880002eba900100ba900102ba90038
:10165400200ba8000b68a9002b68a800015c80007f
:1016640000fe2f00008060000000a000005c8800e5
:101674000080fa00000006000000fa00c08080002c
:10168400f10c2300810f500010003200f10c2300f4
:10169400810f500004003c00718e2100810f500026
:1016a4000c0032000f00370071892600810f5000b2
:1016b4000400320051a82700810f500007003200b7
:1016c400080037000000eb0007003700100020007e
:1016d4000500370020002000030037003000200000
:1016e400010037000080eb000080fa0000000600d3
:1016f4000000fa003a6ea800386ea90030c3b300a7
:101704000bedb70050a9a800814a800000ff2f000c
:10171400008060000000a000804a880051e9a80011
:101724005089a800b14a800080ff2f00008060002b
:10173400b04a8800b04a80008001b300b04a8800f3
:1017440020c8a80000c8a900114280000070200031
:1017540001007000104288000080eb00c080880007
:081764000080fa0000000600fd
:020000040000fa
:10176c00101000000a00000082000000ffff0100c2
:10177c00000100000100ff00ff000000001000004d
:10178c001000000080000000a41000000400000005
:10179c008200000001000000000000001a10000090
:0c17ac008a000000800000000000000027
:020000040000fa
:1017b800f03fb1000180b10006003500ee030900da
:1017c80000000000403fb1000180b100fbff3d0078
:1017d8001000b000203fb000020035000080090072
:0817e8000000000000000600f3
:020000040000fa
:020000040005f5
:047e0000ffffff0081
:020000040000fa
:020000040005f5
:047e2000ffffff0061
:020000040000fa
:020000040005f5
:047e30007fffff00d1
:020000040000fa
:020000040005f5
:047e3800bfffff0089
:020000040000fa
:020000040005f5
:047e4000ffffff0041
:020000040000fa
:020000040005f5
:047e4800ffffff0039
:020000040000fa
:020000040005f5
:047e5000deffff0052
:020000040000fa
:020000040005f5
:047e5800ffffff0029
:020000040000fa
:020000040005f5
:047e6000ffffff0021
:020000040000fa
:020000040005f5
:047e6800ffffff0019
:020000040000fa
:020000040005f5
:047e7000ffffff0011
:020000040000fa
:020000040005f5
:047e7800ffffff0009
:020000040000fa
:020000040005f5
:047e8000fffcff0004
:020000040000fa
:020000040005f5
:047e8800ffffff00f9
:020000040000fa
:020000040005f5
:047ff800ffffff0088
:00000001FF
