:020000040000fa
:080000000002040000000000f2
:020000040000fa
:04000800b803000039
:020000040000fa
:04000c00b803000035
:020000040000fa
:04001000b803000031
:020000040000fa
:04001400b80300002d
:020000040000fa
:04001800b803000029
:020000040000fa
:04001c00b803000025
:020000040000fa
:04002000b803000021
:020000040000fa
:04002400b80300001d
:020000040000fa
:04002800b803000019
:020000040000fa
:04002c006a03000063
:020000040000fa
:04003000b803000011
:020000040000fa
:04003400b80300000d
:020000040000fa
:04003800b803000009
:020000040000fa
:04003c00b803000005
:020000040000fa
:04004000b803000001
:020000040000fa
:04004400b8030000fd
:020000040000fa
:04004800b8030000f9
:020000040000fa
:04004c00b8030000f5
:020000040000fa
:04005000b8030000f1
:020000040000fa
:04005400b8030000ed
:020000040000fa
:04005800b8030000e9
:020000040000fa
:04005c00b8030000e5
:020000040000fa
:04006000b8030000e1
:020000040000fa
:04006400b8030000dd
:020000040000fa
:04006800b8030000d9
:020000040000fa
:04006c00b8030000d5
:020000040000fa
:04007000b8030000d1
:020000040000fa
:04007400b8030000cd
:020000040000fa
:04007800b8030000c9
:020000040000fa
:04007c00b8030000c5
:020000040000fa
:04008000b8030000c1
:020000040000fa
:04008400b8030000bd
:020000040000fa
:04008800b8030000b9
:020000040000fa
:04008c00b8030000b5
:020000040000fa
:04009000b8030000b1
:020000040000fa
:04009400b8030000ad
:020000040000fa
:04009800b8030000a9
:020000040000fa
:04009c00b8030000a5
:020000040000fa
:0400a000b8030000a1
:020000040000fa
:0400a400b80300009d
:020000040000fa
:0400a800b803000099
:020000040000fa
:0400ac00b803000095
:020000040000fa
:0400b000b803000091
:020000040000fa
:0400b400b80300008d
:020000040000fa
:0400b800b803000089
:020000040000fa
:0400bc00b803000085
:020000040000fa
:0400c000b803000081
:020000040000fa
:0400c400b80300007d
:020000040000fa
:0400c800b803000079
:020000040000fa
:0400cc00b803000075
:020000040000fa
:0400d000b803000071
:020000040000fa
:0400d400b80300006d
:020000040000fa
:0400d800b803000069
:020000040000fa
:0400dc00b803000065
:020000040000fa
:0400e000b803000061
:020000040000fa
:0400e400b80300005d
:020000040000fa
:0400e800b803000059
:020000040000fa
:0400ec00b803000055
:020000040000fa
:0400f000b803000051
:020000040000fa
:0400f400b80300004d
:020000040000fa
:0400f800b803000049
:020000040000fa
:0400fc00b803000045
:020000040000fa
:04010000b803000040
:020000040000fa
:04010400b80300003c
:020000040000fa
:04010800b803000038
:020000040000fa
:04010c00b803000034
:020000040000fa
:04011000b803000030
:020000040000fa
:04011400b80300002c
:020000040000fa
:04011800b803000028
:020000040000fa
:04011c00b803000024
:020000040000fa
:04012000b803000020
:020000040000fa
:04012400b80300001c
:020000040000fa
:04012800b803000018
:020000040000fa
:04012c00b803000014
:020000040000fa
:04013000b803000010
:020000040000fa
:04013400b80300000c
:020000040000fa
:04013800b803000008
:020000040000fa
:04013c00b803000004
:020000040000fa
:04014000b803000000
:020000040000fa
:04014400b8030000fc
:020000040000fa
:04014800b8030000f8
:020000040000fa
:04014c00b8030000f4
:020000040000fa
:04015000b8030000f0
:020000040000fa
:04015400b8030000ec
:020000040000fa
:04015800b8030000e8
:020000040000fa
:04015c00b8030000e4
:020000040000fa
:04016000b8030000e0
:020000040000fa
:04016400b8030000dc
:020000040000fa
:04016800b8030000d8
:020000040000fa
:04016c00b8030000d4
:020000040000fa
:04017000b8030000d0
:020000040000fa
:04017400b8030000cc
:020000040000fa
:04017800b8030000c8
:020000040000fa
:04017c00b8030000c4
:020000040000fa
:04018000b8030000c0
:020000040000fa
:04018400b8030000bc
:020000040000fa
:04018800b8030000b8
:020000040000fa
:04018c00b8030000b4
:020000040000fa
:04019000b8030000b0
:020000040000fa
:0401940088030000dc
:020000040000fa
:04019800b8030000a8
:020000040000fa
:04019c00b8030000a4
:020000040000fa
:0401a000b8030000a0
:020000040000fa
:0401a400b80300009c
:020000040000fa
:0401a800b803000098
:020000040000fa
:0401ac00b803000094
:020000040000fa
:0401b000b803000090
:020000040000fa
:0401b400b80300008c
:020000040000fa
:0401b800b803000088
:020000040000fa
:0401bc00b803000084
:020000040000fa
:0401c000b803000080
:020000040000fa
:0401c400b80300007c
:020000040000fa
:0401c8009803000098
:020000040000fa
:0401cc00a803000084
:020000040000fa
:0401d000b803000070
:020000040000fa
:0401d400b80300006c
:020000040000fa
:0401d800b803000068
:020000040000fa
:0401dc00b803000064
:020000040000fa
:0401e000b803000060
:020000040000fa
:0401e400b80300005c
:020000040000fa
:0401e800b803000058
:020000040000fa
:0401ec00b803000054
:020000040000fa
:0401f000b803000050
:020000040000fa
:0401f400b80300004c
:020000040000fa
:0401f800b803000048
:020000040000fa
:0401fc00b803000044
:020000040000fa
:04020000b80300003f
:020000040000fa
:04020400b80300003b
:020000040000fa
:04020800b803000037
:020000040000fa
:04020c00b803000033
:020000040000fa
:04021000b80300002f
:020000040000fa
:04021400b80300002b
:020000040000fa
:04021800b803000027
:020000040000fa
:04021c00b803000023
:020000040000fa
:04022000b80300001f
:020000040000fa
:04022400b80300001b
:020000040000fa
:04022800b803000017
:020000040000fa
:04022c00b803000013
:020000040000fa
:04023000b80300000f
:020000040000fa
:04023400b80300000b
:020000040000fa
:04023800b803000007
:020000040000fa
:04023c00b803000003
:020000040000fa
:04024000b8030000ff
:020000040000fa
:04024400b8030000fb
:020000040000fa
:04024800b8030000f7
:020000040000fa
:04024c00b8030000f3
:020000040000fa
:04025000b8030000ef
:020000040000fa
:04025400b8030000eb
:020000040000fa
:04025800b8030000e7
:020000040000fa
:04025c00b8030000e3
:020000040000fa
:04026000b8030000df
:020000040000fa
:04026400b8030000db
:020000040000fa
:04026800b8030000d7
:020000040000fa
:04026c00b8030000d3
:020000040000fa
:04027000b8030000cf
:020000040000fa
:04027400b8030000cb
:020000040000fa
:04027800b8030000c7
:020000040000fa
:04027c00b8030000c3
:020000040000fa
:04028000b8030000bf
:020000040000fa
:04028400b8030000bb
:020000040000fa
:04028800b8030000b7
:020000040000fa
:04028c00b8030000b3
:020000040000fa
:04029000b8030000af
:020000040000fa
:04029400b8030000ab
:020000040000fa
:04029800b8030000a7
:020000040000fa
:04029c00b8030000a3
:020000040000fa
:0402a000b80300009f
:020000040000fa
:0402a400b80300009b
:020000040000fa
:0402a800b803000097
:020000040000fa
:0402ac00b803000093
:020000040000fa
:0402b000b80300008f
:020000040000fa
:0402b400b80300008b
:020000040000fa
:0402b800b803000087
:020000040000fa
:0402bc00b803000083
:020000040000fa
:0402c000b80300007f
:020000040000fa
:0402c400b80300007b
:020000040000fa
:0402c800b803000077
:020000040000fa
:0402cc00b803000073
:020000040000fa
:0402d000b80300006f
:020000040000fa
:0402d400b80300006b
:020000040000fa
:0402d800b803000067
:020000040000fa
:0402dc00b803000063
:020000040000fa
:0402e000b80300005f
:020000040000fa
:0402e400b80300005b
:020000040000fa
:0402e800b803000057
:020000040000fa
:0402ec00b803000053
:020000040000fa
:0402f000b80300004f
:020000040000fa
:0402f400b80300004b
:020000040000fa
:0402f800b803000047
:020000040000fa
:0402fc00b803000043
:020000040000fa
:04030000b80300003e
:020000040000fa
:04030400b80300003a
:020000040000fa
:04030800b803000036
:020000040000fa
:04030c00b803000032
:020000040000fa
:04031000b80300002e
:020000040000fa
:04031400b80300002a
:020000040000fa
:04031800b803000026
:020000040000fa
:04031c00b803000022
:020000040000fa
:04032000b80300001e
:020000040000fa
:04032400b80300001a
:020000040000fa
:04032800b803000016
:020000040000fa
:04032c00b803000012
:020000040000fa
:04033000b80300000e
:020000040000fa
:04033400b80300000a
:020000040000fa
:100400006f0a21000eff26000e0188000000000088
:10041000000020000000e000020032000001200087
:100420002002880014000700d30007000000e0004d
:1004300003003a0040a12000010020000200370024
:100440000000200001002000810f70000100320038
:100450000f000700000020000000e0000200320052
:10046000000002000000000058040200000000002c
:100470000040da000000fe00200020000000e00044
:1004800002003200100020009001880000000600e9
:10049000a1028800800478000000eb001f003700f4
:1004a000e284440054a0b4009905ba00e2844400f8
:1004b00054a0b4009906ba00e284440054a0b400e9
:1004c0000006eb00476fde00fd07b200ae018800ba
:1004d000636ce10003003a000ad801000000eb0061
:1004e0000e003700606ce10008003a00004deb00a0
:1004f0000a05e800020039003420ec000af0a000f0
:100500008b05e900f9ff3e00040037006168e10057
:10051000010032000086eb000b00070019c7ba008b
:100520001905ba000e04e00003003a000a00e000da
:10053000dbff3a0000000600fe07b200ae028800b2
:100540008a047800f5ff37000cd0a300e20f4d00bd
:100550001c00390089027800354dba000a05e80010
:10056000020039003420ec000af0a0008b05e900fd
:100570000f003200254dba000a05e80002003900dc
:100580003420ec000af0a0008b05e90008003200de
:100590000c00e0000600320015cdba000a05e800a4
:1005a000020039003420ec000af0a0008b05e900bd
:1005b0008984e80054a0b4000b00e000e2ff3a0098
:1005c000000006009902ba00055d78008b05e9007d
:1005d000f7ff3200c82ade00055d78008b05e900d0
:1005e000f3ff32000c00e000f1ff320019ddba0029
:1005f000eeff3700f8080400000000007605040054
:1006000000000000da04040000000000bc05040043
:1006100000000000060a040000000000ae0504000f
:10062000000000009405040000000000b40704006e
:1006300000000000f60504000000000010060400a1
:10064000000000003008040000000000440804001e
:100650000000000058080400000000006c080400be
:10066000000000008008040000000000940804005e
:1006700000000000a808040000000000bc080400fe
:1006800000000000d008040000000000e40804009e
:1006900000000000dc07040000000000ea0704007e
:1006a00000000000f8070400000000000608040035
:1006b00000000000140804000000000026090400e7
:1006c000000000007e090400000000009a090400f8
:1006d00000000000801f78000000fa0006d0bf0074
:1006e0000004e000020032000670ef000300370053
:1006f0001430ef00100020007080880001e1a90094
:100700000028a9000080fa004f0078000040060091
:10071000801f78000000fa00606080004080880040
:100720000b68a9000080fa004f0078000040060026
:10073000801f78000000fa0030618000508088003f
:100740000d08a9000080fa004f0078000040060064
:10075000801f78000000fa0040618000508088000f
:100760000d28a9000080fa004f0078000040060024
:100770000040da000000fe0000000500889fbe0077
:10078000d08080000000e000010032000000010085
:10079000e08080000000e000010032000000010065
:1007a000800121001004e00022003a001085800042
:1007b0002185800088002000d2602600930120005f
:1007c00035000700f2352f00e3c62300000041008a
:1007d000818049000804e900f7ff3a00e8012100a0
:1007e0000908200088844400d2602600930120007c
:1007f00029000700f2352f00e3c623000000410066
:100800008180490000acbe00890f5400f6ff3a0019
:100810001085880021858800f08480000185800093
:10082000f08088000181880011c0b30080012100a0
:1008300001487800d26026009301200010858000d6
:100840002185800014000700f2352f00e3c6230045
:1008500000024100818249001485880025858800b6
:10086000e0012100100078007f0160004211dd00ee
:1008700020022100020140001200be00f08088002a
:10088000018188000489be000100780000f0a10009
:100890004f04be0000000600020ab900001bb900a8
:1008a0000200b80081004200810043000000060001
:020000040000fa
:1008b0000000fa00808f2000000001000030ef00ef
:1008c0000171800000002800008060000000e0004e
:1008d0000a003a000430ef00b08080000000e00021
:1008e0000300320060572000000001001630ef00c6
:1008f000a04d200000000100f1ff3700c15b200087
:100900000000eb0001000100100020009080880032
:1009100010002000b0808800224ea9003e6ea90081
:10092000e7ff37000400fa0010079800808080007d
:100930009e009000808f500003003a0010002000bd
:10094000000f7800020037000000eb00000f780075
:100950001e0078000080fa00000006000000fa0087
:100960000021ef000108800000302000010070002d
:1009700000088800010880000003200001007000ca
:10098000000888000021a9000421ef009180800068
:10099000803e20008088b9000080ea00400888007e
:1009a0002028a8000028a90001e1a8000080fa0082
:1009b000000006000400fa0010002000a08088005b
:1009c0000000eb00000f78000e30ef000000eb009d
:1009d000100798002d003700e1718000000024000e
:1009e000008060000000e00004003a001430ef00d6
:1009f00010002000cbff0700000f7800017180007d
:100a000000002400008060000000e00005003200cb
:100a10000171800000002200008060000000e00002
:100a200004003a001430ef0020002000bdff070052
:100a3000000f780060a02000000001001e00900060
:100a40000000e00003003a00408080007400400095
:100a500010079800418080001e009000808f500099
:100a60000a00350080808000e30f500007003a0044
:100a70001e0090000000e000040032001430ef007f
:100a800030002000a7ff0700000f7800a080800042
:100a90000000e00005003200017180000000280025
:100aa000008060000000e000cbff32001e007800f4
:100ab0000000e00003003a00e05a200000000100be
:100ac000080037001e007800e10f500005003a00d2
:100ad000708080000000e00002003a0040592000d1
:100ae000000001000080fa00000006000000fa008b
:100af00022ff0700310020000101780005000900f5
:100b00000200d8008000fd000000e800808088001e
:100b1000417b200080808000010001008fff0700e2
:100b20000080fa00000006000000fa0001e1a900c0
:100b3000c15b20001000200001000100224ea8002f
:100b400000e224000100200049020700224ea90013
:100b5000e6ff07000080fa00000006000000fa002f
:100b60003e6ea800c15b20000000eb000100010008
:100b70000080fa00000006000200fa00000f780072
:100b80001e007800e10f50000f003a001080800036
:100b90000000e800108088001180800050002000d4
:100ba00000017800050009008200d8008000fd00e7
:100bb0000000e0000b003a00908080000000e80098
:100bc00090808800070037001e0078000000e000d9
:100bd00004003a00615f20001080800001000100e5
:100be0000230ef000080fa00000006000200fa0068
:100bf000000f7800008080009e007800808f5000f9
:100c0000050034009e00780001808800016120000a
:100c100000808000010001000080fa000000060052
:100c20000e00fa00600798000021ef000108800024
:100c300000302000010070000008880001088000da
:100c40000003200001007000000888000021a900b6
:100c50000421ef00a0aa2a00400888002028a8004c
:100c60000028a90001e1a800ee009000a0002000eb
:100c700000017800050009008200d8008000fd0016
:100c8000500798006e019000706626000090b90031
:100c9000c288de004f90de000080500071662600a2
:100ca0000181b9004299de00cf80de00010f5100c2
:100cb0009e007800ea09b90082007800010f500018
:100cc0006e019000b04721000090b900c388de009b
:100cd0004f90de0080805000a000200000017800ce
:100ce000050009008200d8008000fd001007980070
:100cf000ee009000803e2000000178000500090011
:100d00008200d80080007800a00020000001780058
:100d1000050009008200d8008000fd00200798002f
:100d20002e0090000000e0000c003a000080eb0074
:100d3000200798001e0090000000e00007003a0025
:100d40000080eb00100798001e0078000000e00013
:100d500002003a000080eb00000f78000000eb007a
:100d60003007980010c0b30006f0b70077003700d6
:100d70004e0090000000e00003003a0000832000d5
:100d800000000100350037004e009000e10f5000d8
:100d900003003a0040842000000001002f003700cb
:100da0004e009000e20f500003003a0080852000c2
:100db00000000100290037004e009000e30f5000b2
:100dc00003003a00c0862000000001002300370025
:100dd0004e009000e40f500003003a00008820000d
:100de000000001001d0037004e009000e50f50008c
:100df00003003a004089200000000100170037007e
:100e00004e009000e60f500003003a00808a200058
:100e100000000100110037004e009000e70f500065
:100e200003003a00c08b2000000001000b003700d7
:100e30004e009000e80f500003003a00008d2000a3
:100e400000000100050037004e009000e90f50003f
:100e500002003a00408e2000000001003e00900099
:100e60000000e0000b003a000071220001002000a9
:100e70007f010700c07d200000000100de0090001f
:100e8000410798003e0090000000e80030079800fd
:100e90002e0037003e009000e10f50000e003a0097
:100ea0001e007800e10f40000700320000712200b0
:100eb000010020006e010700a07e2000000001005c
:100ec0001e017800420798003e0090000000e800f4
:100ed000300798001d0037003e009000e20f5000e0
:100ee0000e003a001e009000e10f400007003200a3
:100ef00000712200010020005d010700807f2000ba
:100f0000000001009e009000410798003e00900004
:100f10000000e800300798000c0037002e00900019
:100f2000e10f4000070032000071220001002000a4
:100f30004f01070060802000000001002e0190009a
:100f4000420798000000eb003007980006d0bf0071
:100f50000004e00086ff3a0040812000000001000c
:100f60000080fa00000006000400fa001007980054
:100f70000000eb00000f7800060037005beea800d1
:100f8000003e290041002000390107005beea90066
:100f90001e0fe8001e0090009e007800808f500019
:100fa000f6ff3500006c2c00d10220003001070054
:100fb0000080fa00000006000000fa005a8ea90026
:100fc0005a6ea900238ea9003feea8000080fa0007
:100fd000000006000000fa005a8ea9005a6ea9000f
:100fe000238ea8003feea9000080fa000000060052
:100ff0000000fa005a8ea9005a6ea800238ea9009c
:101000003feea9000080fa00000006000000fa0090
:101010005a8ea8005a6ea900238ea9003feea9009f
:101020000080fa00000006000000fa005a8ea900b5
:101030005a6ea900238ea9003feea9003faea8007a
:101040003e0ea8003eeea80022eea800230ea80047
:10105000232ea8003f0ea8000080fa000000060022
:101060000000fa003faea9003e0ea9003eeea90026
:1010700022eea900230ea900232ea9003f0ea800ee
:101080000080fa00000006000000fa003faea80051
:101090003e0ea9003eeea90022eea800230ea800f5
:1010a000232ea8003f0ea8000080fa0000000600d2
:1010b0000000fa003faea9003e0ea9003eeea800d7
:1010c00022eea900230ea900232ea8003f0ea9009e
:1010d0000080fa00000006000000fa003faea90000
:1010e0003e0ea9003eeea90022eea900230ea800a4
:1010f000232ea8003f0ea9000080fa000000060081
:101100000000fa003faea8003e0ea9003eeea90086
:1011100022eea800230ea800232ea9003f0ea9004e
:101120000080fa00000006000000fa003faea900af
:101130003e0ea8003eeea90022eea900230ea80054
:10114000232ea9003f0ea9000080fa00000006002f
:101150000000fa003faea9003e0ea8003eeea90036
:1011600022eea900230ea900232ea9003f0ea900fc
:101170000080fa00000006000000fa003faea9005f
:101180003e0ea9003eeea90022eea800230ea80004
:10119000232ea8003f0ea8000080fa0000000600e1
:1011a0000000fa003faea9003e0ea9003eeea900e5
:1011b00022eea900230ea900232ea9003f0ea900ac
:1011c0000080fa00000006000000fa003faea9000f
:1011d0003e0ea9003eeea90022eea800230ea800b4
:1011e000232ea9003f0ea9000080fa00000006008f
:1011f0000000fa00317c8000f08f2f00008060003a
:101200000080a000307c88002028a8000028a900c9
:101210001feea8003bcea8001fcea8001faea8005e
:101220001e4ea9003a6ea90057eea9006092200058
:1012300000000100e097200000000100a0992000bc
:10124000000001000080fa00000006000000fa0023
:101250008f0fa800717c800000fc2f0000806000d0
:101260000000a000707c8800d1072000b0210a0097
:10127000900f0000917c8000f0f82f00008060004b
:101280000050a000907c8800917c800080ff2f009f
:10129000008060000000a000907c88008fefa80014
:1012a00001648000f0f32f00008060000070a00057
:1012b0000064880081eca80089eca800892ca800b3
:1012c000d10c2000b0210a008c0c00007164800059
:1012d00000002f008080600020f3200001007000db
:1012e0007064880010002000a0648800934ca8005f
:1012f00093eca8000080fa00000006000000fa004d
:10130000568ea900566ea9001f8ea9003beea900bb
:101310003baea9003a0ea9003aeea9001eeea900c4
:101320001f0ea9001f2ea9003b0ea9000080fa0085
:10133000000006000000fa00000ea800002ea80021
:10134000004ea800020ea800022ea800024ea8001f
:101350001160800000f02000010070001060880023
:1013600001eba800000ca800000000000160800054
:1013700000102000008060000000e000fbff320051
:101380000a0ba80051588000f0ff23000080600085
:1013900000e0a0005058880051588000f00f2c0049
:1013a0000080600050588800b15e800000f82f0077
:1013b00000806000b05e8800d15e800000f82f00e1
:1013c00000806000d05e880041588000f0ff21005e
:1013d000008060004058880002eba900100ba900b3
:1013e000102ba900200ba8000b68a9002b68a800ef
:1013f000015c800000fe2f00008060000000a00063
:10140000005c88000080fa00000006000000fa007e
:1014100008cba80000d420003100200014000700f1
:081420000080fa000000060044
:020000040000fa
:10142800101000000800000082000000ffff01000b
:101438000001000001000000001000001000000082
:1014480080000000a21000000400000082000000dc
:101458000100000000000000181000008a000000d1
:081468008000000000000000fc
:020000040000fa
:10147000f03fb1000180b10006003500ee03090025
:1014800000000000403fb1000180b100fbff3d00c3
:101490001000b000203fb0000200350000800900bd
:0814a00000000000000006003e
:020000040000fa
:020000040005f5
:047e0000ffffff0081
:020000040000fa
:020000040005f5
:047e2000ffffff0061
:020000040000fa
:020000040005f5
:047e30007fffff00d1
:020000040000fa
:020000040005f5
:047e3800bfffff0089
:020000040000fa
:020000040005f5
:047e4000ffffff0041
:020000040000fa
:020000040005f5
:047e4800ffffff0039
:020000040000fa
:020000040005f5
:047e5000deffff0052
:020000040000fa
:020000040005f5
:047e5800ffffff0029
:020000040000fa
:020000040005f5
:047e6000ffffff0021
:020000040000fa
:020000040005f5
:047e6800ffffff0019
:020000040000fa
:020000040005f5
:047e7000ffffff0011
:020000040000fa
:020000040005f5
:047e7800ffffff0009
:020000040000fa
:020000040005f5
:047e8000fffcff0004
:020000040000fa
:020000040005f5
:047e8800ffffff00f9
:020000040000fa
:020000040005f5
:047ff800ffffff0088
:00000001FF
